{
  "_format": "hh-sol-artifact-1",
  "contractName": "Marketplace",
  "sourceName": "contracts/Marketplace.sol",
  "abi": [
    {
      "inputs": [],
      "stateMutability": "nonpayable",
      "type": "constructor"
    },
    {
      "anonymous": false,
      "inputs": [
        {
          "indexed": true,
          "internalType": "address",
          "name": "owner",
          "type": "address"
        },
        {
          "indexed": true,
          "internalType": "address",
          "name": "approved",
          "type": "address"
        },
        {
          "indexed": true,
          "internalType": "uint256",
          "name": "tokenId",
          "type": "uint256"
        }
      ],
      "name": "Approval",
      "type": "event"
    },
    {
      "anonymous": false,
      "inputs": [
        {
          "indexed": true,
          "internalType": "address",
          "name": "owner",
          "type": "address"
        },
        {
          "indexed": true,
          "internalType": "address",
          "name": "operator",
          "type": "address"
        },
        {
          "indexed": false,
          "internalType": "bool",
          "name": "approved",
          "type": "bool"
        }
      ],
      "name": "ApprovalForAll",
      "type": "event"
    },
    {
      "anonymous": false,
      "inputs": [
        {
          "indexed": true,
          "internalType": "uint256",
          "name": "tokenId",
          "type": "uint256"
        },
        {
          "indexed": false,
          "internalType": "address",
          "name": "seller",
          "type": "address"
        },
        {
          "indexed": false,
          "internalType": "address",
          "name": "owner",
          "type": "address"
        },
        {
          "indexed": false,
          "internalType": "uint256",
          "name": "price",
          "type": "uint256"
        },
        {
          "indexed": false,
          "internalType": "bool",
          "name": "sold",
          "type": "bool"
        }
      ],
      "name": "MarketItemCreated",
      "type": "event"
    },
    {
      "anonymous": false,
      "inputs": [
        {
          "indexed": true,
          "internalType": "address",
          "name": "from",
          "type": "address"
        },
        {
          "indexed": true,
          "internalType": "address",
          "name": "to",
          "type": "address"
        },
        {
          "indexed": true,
          "internalType": "uint256",
          "name": "tokenId",
          "type": "uint256"
        }
      ],
      "name": "Transfer",
      "type": "event"
    },
    {
      "inputs": [
        {
          "internalType": "address",
          "name": "to",
          "type": "address"
        },
        {
          "internalType": "uint256",
          "name": "tokenId",
          "type": "uint256"
        }
      ],
      "name": "approve",
      "outputs": [],
      "stateMutability": "nonpayable",
      "type": "function"
    },
    {
      "inputs": [
        {
          "internalType": "address",
          "name": "owner",
          "type": "address"
        }
      ],
      "name": "balanceOf",
      "outputs": [
        {
          "internalType": "uint256",
          "name": "",
          "type": "uint256"
        }
      ],
      "stateMutability": "view",
      "type": "function"
    },
    {
      "inputs": [],
      "name": "count",
      "outputs": [
        {
          "internalType": "uint256",
          "name": "",
          "type": "uint256"
        }
      ],
      "stateMutability": "view",
      "type": "function"
    },
    {
      "inputs": [
        {
          "internalType": "uint256",
          "name": "tokenId",
          "type": "uint256"
        }
      ],
      "name": "createMarketSale",
      "outputs": [],
      "stateMutability": "payable",
      "type": "function"
    },
    {
      "inputs": [
        {
          "internalType": "string",
          "name": "tokenURI",
          "type": "string"
        },
        {
          "internalType": "uint256",
          "name": "price",
          "type": "uint256"
        }
      ],
      "name": "createToken",
      "outputs": [
        {
          "internalType": "uint256",
          "name": "",
          "type": "uint256"
        }
      ],
      "stateMutability": "payable",
      "type": "function"
    },
    {
      "inputs": [],
      "name": "fetchAllItems",
      "outputs": [
        {
          "components": [
            {
              "internalType": "uint256",
              "name": "tokenId",
              "type": "uint256"
            },
            {
              "internalType": "address payable",
              "name": "seller",
              "type": "address"
            },
            {
              "internalType": "address payable",
              "name": "owner",
              "type": "address"
            },
            {
              "internalType": "uint256",
              "name": "price",
              "type": "uint256"
            },
            {
              "internalType": "bool",
              "name": "sold",
              "type": "bool"
            }
          ],
          "internalType": "struct Marketplace.MarketItem[]",
          "name": "",
          "type": "tuple[]"
        }
      ],
      "stateMutability": "view",
      "type": "function"
    },
    {
      "inputs": [],
      "name": "fetchItemsListed",
      "outputs": [
        {
          "components": [
            {
              "internalType": "uint256",
              "name": "tokenId",
              "type": "uint256"
            },
            {
              "internalType": "address payable",
              "name": "seller",
              "type": "address"
            },
            {
              "internalType": "address payable",
              "name": "owner",
              "type": "address"
            },
            {
              "internalType": "uint256",
              "name": "price",
              "type": "uint256"
            },
            {
              "internalType": "bool",
              "name": "sold",
              "type": "bool"
            }
          ],
          "internalType": "struct Marketplace.MarketItem[]",
          "name": "",
          "type": "tuple[]"
        }
      ],
      "stateMutability": "view",
      "type": "function"
    },
    {
      "inputs": [],
      "name": "fetchMarketItems",
      "outputs": [
        {
          "components": [
            {
              "internalType": "uint256",
              "name": "tokenId",
              "type": "uint256"
            },
            {
              "internalType": "address payable",
              "name": "seller",
              "type": "address"
            },
            {
              "internalType": "address payable",
              "name": "owner",
              "type": "address"
            },
            {
              "internalType": "uint256",
              "name": "price",
              "type": "uint256"
            },
            {
              "internalType": "bool",
              "name": "sold",
              "type": "bool"
            }
          ],
          "internalType": "struct Marketplace.MarketItem[]",
          "name": "",
          "type": "tuple[]"
        }
      ],
      "stateMutability": "view",
      "type": "function"
    },
    {
      "inputs": [],
      "name": "fetchMyNFTs",
      "outputs": [
        {
          "components": [
            {
              "internalType": "uint256",
              "name": "tokenId",
              "type": "uint256"
            },
            {
              "internalType": "address payable",
              "name": "seller",
              "type": "address"
            },
            {
              "internalType": "address payable",
              "name": "owner",
              "type": "address"
            },
            {
              "internalType": "uint256",
              "name": "price",
              "type": "uint256"
            },
            {
              "internalType": "bool",
              "name": "sold",
              "type": "bool"
            }
          ],
          "internalType": "struct Marketplace.MarketItem[]",
          "name": "",
          "type": "tuple[]"
        }
      ],
      "stateMutability": "view",
      "type": "function"
    },
    {
      "inputs": [
        {
          "internalType": "uint256",
          "name": "tokenId",
          "type": "uint256"
        }
      ],
      "name": "getApproved",
      "outputs": [
        {
          "internalType": "address",
          "name": "",
          "type": "address"
        }
      ],
      "stateMutability": "view",
      "type": "function"
    },
    {
      "inputs": [],
      "name": "getListingPrice",
      "outputs": [
        {
          "internalType": "uint256",
          "name": "",
          "type": "uint256"
        }
      ],
      "stateMutability": "view",
      "type": "function"
    },
    {
      "inputs": [
        {
          "internalType": "address",
          "name": "owner",
          "type": "address"
        },
        {
          "internalType": "address",
          "name": "operator",
          "type": "address"
        }
      ],
      "name": "isApprovedForAll",
      "outputs": [
        {
          "internalType": "bool",
          "name": "",
          "type": "bool"
        }
      ],
      "stateMutability": "view",
      "type": "function"
    },
    {
      "inputs": [
        {
          "internalType": "string",
          "name": "tokenURI",
          "type": "string"
        }
      ],
      "name": "isContentOwned",
      "outputs": [
        {
          "internalType": "bool",
          "name": "",
          "type": "bool"
        }
      ],
      "stateMutability": "view",
      "type": "function"
    },
    {
      "inputs": [],
      "name": "name",
      "outputs": [
        {
          "internalType": "string",
          "name": "",
          "type": "string"
        }
      ],
      "stateMutability": "view",
      "type": "function"
    },
    {
      "inputs": [
        {
          "internalType": "uint256",
          "name": "tokenId",
          "type": "uint256"
        }
      ],
      "name": "ownerOf",
      "outputs": [
        {
          "internalType": "address",
          "name": "",
          "type": "address"
        }
      ],
      "stateMutability": "view",
      "type": "function"
    },
    {
      "inputs": [
        {
          "internalType": "uint256",
          "name": "tokenId",
          "type": "uint256"
        },
        {
          "internalType": "uint256",
          "name": "price",
          "type": "uint256"
        }
      ],
      "name": "resellToken",
      "outputs": [],
      "stateMutability": "payable",
      "type": "function"
    },
    {
      "inputs": [
        {
          "internalType": "address",
          "name": "from",
          "type": "address"
        },
        {
          "internalType": "address",
          "name": "to",
          "type": "address"
        },
        {
          "internalType": "uint256",
          "name": "tokenId",
          "type": "uint256"
        }
      ],
      "name": "safeTransferFrom",
      "outputs": [],
      "stateMutability": "nonpayable",
      "type": "function"
    },
    {
      "inputs": [
        {
          "internalType": "address",
          "name": "from",
          "type": "address"
        },
        {
          "internalType": "address",
          "name": "to",
          "type": "address"
        },
        {
          "internalType": "uint256",
          "name": "tokenId",
          "type": "uint256"
        },
        {
          "internalType": "bytes",
          "name": "_data",
          "type": "bytes"
        }
      ],
      "name": "safeTransferFrom",
      "outputs": [],
      "stateMutability": "nonpayable",
      "type": "function"
    },
    {
      "inputs": [
        {
          "internalType": "address",
          "name": "operator",
          "type": "address"
        },
        {
          "internalType": "bool",
          "name": "approved",
          "type": "bool"
        }
      ],
      "name": "setApprovalForAll",
      "outputs": [],
      "stateMutability": "nonpayable",
      "type": "function"
    },
    {
      "inputs": [
        {
          "internalType": "bytes4",
          "name": "interfaceId",
          "type": "bytes4"
        }
      ],
      "name": "supportsInterface",
      "outputs": [
        {
          "internalType": "bool",
          "name": "",
          "type": "bool"
        }
      ],
      "stateMutability": "view",
      "type": "function"
    },
    {
      "inputs": [],
      "name": "symbol",
      "outputs": [
        {
          "internalType": "string",
          "name": "",
          "type": "string"
        }
      ],
      "stateMutability": "view",
      "type": "function"
    },
    {
      "inputs": [
        {
          "internalType": "uint256",
          "name": "tokenId",
          "type": "uint256"
        }
      ],
      "name": "tokenURI",
      "outputs": [
        {
          "internalType": "string",
          "name": "",
          "type": "string"
        }
      ],
      "stateMutability": "view",
      "type": "function"
    },
    {
      "inputs": [
        {
          "internalType": "address",
          "name": "from",
          "type": "address"
        },
        {
          "internalType": "address",
          "name": "to",
          "type": "address"
        },
        {
          "internalType": "uint256",
          "name": "tokenId",
          "type": "uint256"
        }
      ],
      "name": "transferFrom",
      "outputs": [],
      "stateMutability": "nonpayable",
      "type": "function"
    },
    {
      "inputs": [
        {
          "internalType": "uint256",
          "name": "_listingPrice",
          "type": "uint256"
        }
      ],
      "name": "updateListingPrice",
      "outputs": [],
      "stateMutability": "payable",
      "type": "function"
    }
  ],
  "bytecode": "0x60806040526658d15e176280006009553480156200001c57600080fd5b50604080518082018252600a8152694e465420546f6b656e7360b01b60208083019182528351808501909452600384526213919560ea1b9084015281519192916200006a916000916200009b565b508051620000809060019060208401906200009b565b5050600a80546001600160a01b03191633179055506200017e565b828054620000a99062000141565b90600052602060002090601f016020900481019282620000cd576000855562000118565b82601f10620000e857805160ff191683800117855562000118565b8280016001018555821562000118579182015b8281111562000118578251825591602001919060010190620000fb565b50620001269291506200012a565b5090565b5b808211156200012657600081556001016200012b565b600181811c908216806200015657607f821691505b602082108114156200017857634e487b7160e01b600052602260045260246000fd5b50919050565b612583806200018e6000396000f3fe60806040526004361061014b5760003560e01c806370a08231116100b6578063ae677aa31161006f578063ae677aa314610382578063b88d4fde14610395578063be9af536146103b5578063c87b56dd146103c8578063e219fc75146103e8578063e985e9c5146103fb57600080fd5b806370a08231146102e557806372b3b6201461030557806395d89b411461031857806397598cc31461032d5780639f1cabc614610342578063a22cb4651461036257600080fd5b806312e855851161010857806312e8558514610246578063202e37401461025b57806323b872dd1461027057806342842e0e1461029057806345f8fa80146102b05780636352211e146102c557600080fd5b806301ffc9a71461015057806306661abd1461018557806306fdde03146101a8578063081812fc146101ca578063095ea7b3146102025780630f08efe014610224575b600080fd5b34801561015c57600080fd5b5061017061016b366004612108565b610444565b60405190151581526020015b60405180910390f35b34801561019157600080fd5b5061019a610496565b60405190815260200161017c565b3480156101b457600080fd5b506101bd6104a6565b60405161017c919061231f565b3480156101d657600080fd5b506101ea6101e53660046121b6565b610538565b6040516001600160a01b03909116815260200161017c565b34801561020e57600080fd5b5061022261021d3660046120df565b6105c5565b005b34801561023057600080fd5b506102396106db565b60405161017c91906122a3565b34801561025257600080fd5b5060095461019a565b34801561026757600080fd5b5061023961086f565b34801561027c57600080fd5b5061022261028b366004611ff1565b610a41565b34801561029c57600080fd5b506102226102ab366004611ff1565b610a72565b3480156102bc57600080fd5b50610239610a8d565b3480156102d157600080fd5b506101ea6102e03660046121b6565b610c5f565b3480156102f157600080fd5b5061019a610300366004611fa5565b610cd6565b61019a610313366004612173565b610d5d565b34801561032457600080fd5b506101bd610d9f565b34801561033957600080fd5b50610239610dae565b34801561034e57600080fd5b5061017061035d366004612140565b610ef4565b34801561036e57600080fd5b5061022261037d3660046120a5565b610f22565b6102226103903660046121b6565b610f31565b3480156103a157600080fd5b506102226103b036600461202c565b610fa9565b6102226103c33660046121b6565b610fe1565b3480156103d457600080fd5b506101bd6103e33660046121b6565b611146565b6102226103f63660046121ce565b6112bd565b34801561040757600080fd5b50610170610416366004611fbf565b6001600160a01b03918216600090815260056020908152604080832093909416825291909152205460ff1690565b60006001600160e01b031982166380ac58cd60e01b148061047557506001600160e01b03198216635b5e139f60e01b145b8061049057506301ffc9a760e01b6001600160e01b03198316145b92915050565b60006104a160075490565b905090565b6060600080546104b590612488565b80601f01602080910402602001604051908101604052809291908181526020018280546104e190612488565b801561052e5780601f106105035761010080835404028352916020019161052e565b820191906000526020600020905b81548152906001019060200180831161051157829003601f168201915b5050505050905090565b6000610543826113b5565b6105a95760405162461bcd60e51b815260206004820152602c60248201527f4552433732313a20617070726f76656420717565727920666f72206e6f6e657860448201526b34b9ba32b73a103a37b5b2b760a11b60648201526084015b60405180910390fd5b506000908152600460205260409020546001600160a01b031690565b60006105d082610c5f565b9050806001600160a01b0316836001600160a01b0316141561063e5760405162461bcd60e51b815260206004820152602160248201527f4552433732313a20617070726f76616c20746f2063757272656e74206f776e656044820152603960f91b60648201526084016105a0565b336001600160a01b038216148061065a575061065a8133610416565b6106cc5760405162461bcd60e51b815260206004820152603860248201527f4552433732313a20617070726f76652063616c6c6572206973206e6f74206f7760448201527f6e6572206e6f7220617070726f76656420666f7220616c6c000000000000000060648201526084016105a0565b6106d683836113d2565b505050565b606060006106e860075490565b905060006106f560085490565b6007546107029190612445565b90506000808267ffffffffffffffff81111561072e57634e487b7160e01b600052604160045260246000fd5b60405190808252806020026020018201604052801561076757816020015b610754611e2d565b81526020019060019003908161074c5790505b50905060005b848110156108665730600b6000610785846001612419565b81526020810191909152604001600020600201546001600160a01b031614156108545760006107b5826001612419565b6000818152600b6020908152604091829020825160a0810184528154815260018201546001600160a01b039081169382019390935260028201549092169282019290925260038201546060820152600482015460ff16151560808201528551929350909185908790811061083957634e487b7160e01b600052603260045260246000fd5b602090810291909101015261084f600186612419565b945050505b8061085e816124c3565b91505061076d565b50949350505050565b6060600061087c60075490565b905060008060005b838110156108df5733600b600061089c846001612419565b81526020810191909152604001600020600201546001600160a01b031614156108cd576108ca600184612419565b92505b806108d7816124c3565b915050610884565b5060008267ffffffffffffffff81111561090957634e487b7160e01b600052604160045260246000fd5b60405190808252806020026020018201604052801561094257816020015b61092f611e2d565b8152602001906001900390816109275790505b50905060005b848110156108665733600b6000610960846001612419565b81526020810191909152604001600020600201546001600160a01b03161415610a2f576000610990826001612419565b6000818152600b6020908152604091829020825160a0810184528154815260018201546001600160a01b039081169382019390935260028201549092169282019290925260038201546060820152600482015460ff161515608082015285519293509091859087908110610a1457634e487b7160e01b600052603260045260246000fd5b6020908102919091010152610a2a600186612419565b945050505b80610a39816124c3565b915050610948565b610a4b3382611440565b610a675760405162461bcd60e51b81526004016105a0906123c8565b6106d6838383611526565b6106d683838360405180602001604052806000815250610fa9565b60606000610a9a60075490565b905060008060005b83811015610afd5733600b6000610aba846001612419565b81526020810191909152604001600020600101546001600160a01b03161415610aeb57610ae8600184612419565b92505b80610af5816124c3565b915050610aa2565b5060008267ffffffffffffffff811115610b2757634e487b7160e01b600052604160045260246000fd5b604051908082528060200260200182016040528015610b6057816020015b610b4d611e2d565b815260200190600190039081610b455790505b50905060005b848110156108665733600b6000610b7e846001612419565b81526020810191909152604001600020600101546001600160a01b03161415610c4d576000610bae826001612419565b6000818152600b6020908152604091829020825160a0810184528154815260018201546001600160a01b039081169382019390935260028201549092169282019290925260038201546060820152600482015460ff161515608082015285519293509091859087908110610c3257634e487b7160e01b600052603260045260246000fd5b6020908102919091010152610c48600186612419565b945050505b80610c57816124c3565b915050610b66565b6000818152600260205260408120546001600160a01b0316806104905760405162461bcd60e51b815260206004820152602960248201527f4552433732313a206f776e657220717565727920666f72206e6f6e657869737460448201526832b73a103a37b5b2b760b91b60648201526084016105a0565b60006001600160a01b038216610d415760405162461bcd60e51b815260206004820152602a60248201527f4552433732313a2062616c616e636520717565727920666f7220746865207a65604482015269726f206164647265737360b01b60648201526084016105a0565b506001600160a01b031660009081526003602052604090205490565b6000610d6d600780546001019055565b6000610d7860075490565b9050610d8433826116c2565b610d8e81856117f5565b610d988184611880565b9392505050565b6060600180546104b590612488565b60606000610dbb60075490565b90506000808267ffffffffffffffff811115610de757634e487b7160e01b600052604160045260246000fd5b604051908082528060200260200182016040528015610e2057816020015b610e0d611e2d565b815260200190600190039081610e055790505b50905060005b83811015610eec576000610e3b826001612419565b6000818152600b6020908152604091829020825160a0810184528154815260018201546001600160a01b039081169382019390935260028201549092169282019290925260038201546060820152600482015460ff161515608082015285519293509091859087908110610ebf57634e487b7160e01b600052603260045260246000fd5b6020908102919091010152610ed5600186612419565b945050508080610ee4906124c3565b915050610e26565b509392505050565b6000600c82604051610f06919061221b565b9081526040519081900360200190205460ff1660011492915050565b610f2d3383836119d6565b5050565b600a546001600160a01b03163314610fa45760405162461bcd60e51b815260206004820152603060248201527f4f6e6c79206d61726b6574706c616365206f776e65722063616e20757064617460448201526f32903634b9ba34b73390383934b1b29760811b60648201526084016105a0565b600955565b610fb33383611440565b610fcf5760405162461bcd60e51b81526004016105a0906123c8565b610fdb84848484611aa5565b50505050565b6000818152600b6020526040902060038101546001909101546001600160a01b031634821461107a576040805162461bcd60e51b81526020600482015260248101919091527f506c65617365207375626d6974207468652061736b696e67207072696365206960448201527f6e206f7264657220746f20636f6d706c6574652074686520707572636861736560648201526084016105a0565b6000838152600b602052604090206002810180546001600160a01b0319908116331790915560048201805460ff19166001908117909155909101805490911690556110c9600880546001019055565b6110d4303385611526565b600a546009546040516001600160a01b039092169181156108fc0291906000818181858888f19350505050158015611110573d6000803e3d6000fd5b506040516001600160a01b038216903480156108fc02916000818181858888f19350505050158015610fdb573d6000803e3d6000fd5b6060611151826113b5565b6111b75760405162461bcd60e51b815260206004820152603160248201527f45524337323155524953746f726167653a2055524920717565727920666f72206044820152703737b732bc34b9ba32b73a103a37b5b2b760791b60648201526084016105a0565b600082815260066020526040812080546111d090612488565b80601f01602080910402602001604051908101604052809291908181526020018280546111fc90612488565b80156112495780601f1061121e57610100808354040283529160200191611249565b820191906000526020600020905b81548152906001019060200180831161122c57829003601f168201915b50505050509050600061126760408051602081019091526000815290565b905080516000141561127a575092915050565b8151156112ac578082604051602001611294929190612237565b60405160208183030381529060405292505050919050565b6112b584611ad8565b949350505050565b6000828152600b60205260409020600201546001600160a01b031633146113395760405162461bcd60e51b815260206004820152602a60248201527f4f6e6c79206974656d206f776e65722063616e20706572666f726d20746869736044820152691037b832b930ba34b7b760b11b60648201526084016105a0565b600954341461135a5760405162461bcd60e51b81526004016105a090612384565b6000828152600b6020526040902060048101805460ff19169055600381018290556001810180546001600160a01b0319908116331790915560029091018054909116301790556113aa6008611baf565b610f2d333084611526565b6000908152600260205260409020546001600160a01b0316151590565b600081815260046020526040902080546001600160a01b0319166001600160a01b038416908117909155819061140782610c5f565b6001600160a01b03167f8c5be1e5ebec7d5bd14f71427d1e84f3dd0314c0f7b2291e5b200ac8c7c3b92560405160405180910390a45050565b600061144b826113b5565b6114ac5760405162461bcd60e51b815260206004820152602c60248201527f4552433732313a206f70657261746f7220717565727920666f72206e6f6e657860448201526b34b9ba32b73a103a37b5b2b760a11b60648201526084016105a0565b60006114b783610c5f565b9050806001600160a01b0316846001600160a01b031614806114f25750836001600160a01b03166114e784610538565b6001600160a01b0316145b806112b557506001600160a01b0380821660009081526005602090815260408083209388168352929052205460ff166112b5565b826001600160a01b031661153982610c5f565b6001600160a01b03161461159d5760405162461bcd60e51b815260206004820152602560248201527f4552433732313a207472616e736665722066726f6d20696e636f72726563742060448201526437bbb732b960d91b60648201526084016105a0565b6001600160a01b0382166115ff5760405162461bcd60e51b8152602060048201526024808201527f4552433732313a207472616e7366657220746f20746865207a65726f206164646044820152637265737360e01b60648201526084016105a0565b61160a6000826113d2565b6001600160a01b0383166000908152600360205260408120805460019290611633908490612445565b90915550506001600160a01b0382166000908152600360205260408120805460019290611661908490612419565b909155505060008181526002602052604080822080546001600160a01b0319166001600160a01b0386811691821790925591518493918716917fddf252ad1be2c89b69c2b068fc378daa952ba7f163c4a11628f55a4df523b3ef91a4505050565b6001600160a01b0382166117185760405162461bcd60e51b815260206004820181905260248201527f4552433732313a206d696e7420746f20746865207a65726f206164647265737360448201526064016105a0565b611721816113b5565b1561176e5760405162461bcd60e51b815260206004820152601c60248201527f4552433732313a20746f6b656e20616c7265616479206d696e7465640000000060448201526064016105a0565b6001600160a01b0382166000908152600360205260408120805460019290611797908490612419565b909155505060008181526002602052604080822080546001600160a01b0319166001600160a01b03861690811790915590518392907fddf252ad1be2c89b69c2b068fc378daa952ba7f163c4a11628f55a4df523b3ef908290a45050565b6117fe826113b5565b6118615760405162461bcd60e51b815260206004820152602e60248201527f45524337323155524953746f726167653a2055524920736574206f66206e6f6e60448201526d32bc34b9ba32b73a103a37b5b2b760911b60648201526084016105a0565b600082815260066020908152604090912082516106d692840190611e5b565b600081116118d05760405162461bcd60e51b815260206004820152601c60248201527f5072696365206d757374206265206174206c656173742031207765690000000060448201526064016105a0565b60095434146118f15760405162461bcd60e51b81526004016105a090612384565b6040805160a08101825283815233602080830182815230848601818152606086018881526000608088018181528b8252600b909652979097209551865591516001860180546001600160a01b03199081166001600160a01b0393841617909155925160028701805490941691161790915593516003840155516004909201805460ff1916921515929092179091556119899184611526565b604080513381523060208201529081018290526000606082015282907fb640004f1d14576d0c209e240cad0410e0d8c0c33a09375861fbadae2588a98d9060800160405180910390a25050565b816001600160a01b0316836001600160a01b03161415611a385760405162461bcd60e51b815260206004820152601960248201527f4552433732313a20617070726f766520746f2063616c6c65720000000000000060448201526064016105a0565b6001600160a01b03838116600081815260056020908152604080832094871680845294825291829020805460ff191686151590811790915591519182527f17307eab39ab6107e8899845ad3d59bd9653f200f220920489ca2b5937696c31910160405180910390a3505050565b611ab0848484611526565b611abc84848484611c06565b610fdb5760405162461bcd60e51b81526004016105a090612332565b6060611ae3826113b5565b611b475760405162461bcd60e51b815260206004820152602f60248201527f4552433732314d657461646174613a2055524920717565727920666f72206e6f60448201526e3732bc34b9ba32b73a103a37b5b2b760891b60648201526084016105a0565b6000611b5e60408051602081019091526000815290565b90506000815111611b7e5760405180602001604052806000815250610d98565b80611b8884611d13565b604051602001611b99929190612237565b6040516020818303038152906040529392505050565b805480611bfe5760405162461bcd60e51b815260206004820152601b60248201527f436f756e7465723a2064656372656d656e74206f766572666c6f77000000000060448201526064016105a0565b600019019055565b60006001600160a01b0384163b15611d0857604051630a85bd0160e11b81526001600160a01b0385169063150b7a0290611c4a903390899088908890600401612266565b602060405180830381600087803b158015611c6457600080fd5b505af1925050508015611c94575060408051601f3d908101601f19168201909252611c9191810190612124565b60015b611cee573d808015611cc2576040519150601f19603f3d011682016040523d82523d6000602084013e611cc7565b606091505b508051611ce65760405162461bcd60e51b81526004016105a090612332565b805181602001fd5b6001600160e01b031916630a85bd0160e11b1490506112b5565b506001949350505050565b606081611d375750506040805180820190915260018152600360fc1b602082015290565b8160005b8115611d615780611d4b816124c3565b9150611d5a9050600a83612431565b9150611d3b565b60008167ffffffffffffffff811115611d8a57634e487b7160e01b600052604160045260246000fd5b6040519080825280601f01601f191660200182016040528015611db4576020820181803683370190505b5090505b84156112b557611dc9600183612445565b9150611dd6600a866124de565b611de1906030612419565b60f81b818381518110611e0457634e487b7160e01b600052603260045260246000fd5b60200101906001600160f81b031916908160001a905350611e26600a86612431565b9450611db8565b6040805160a08101825260008082526020820181905291810182905260608101829052608081019190915290565b828054611e6790612488565b90600052602060002090601f016020900481019282611e895760008555611ecf565b82601f10611ea257805160ff1916838001178555611ecf565b82800160010185558215611ecf579182015b82811115611ecf578251825591602001919060010190611eb4565b50611edb929150611edf565b5090565b5b80821115611edb5760008155600101611ee0565b600067ffffffffffffffff80841115611f0f57611f0f61251e565b604051601f8501601f19908116603f01168101908282118183101715611f3757611f3761251e565b81604052809350858152868686011115611f5057600080fd5b858560208301376000602087830101525050509392505050565b80356001600160a01b0381168114611f8157600080fd5b919050565b600082601f830112611f96578081fd5b610d9883833560208501611ef4565b600060208284031215611fb6578081fd5b610d9882611f6a565b60008060408385031215611fd1578081fd5b611fda83611f6a565b9150611fe860208401611f6a565b90509250929050565b600080600060608486031215612005578081fd5b61200e84611f6a565b925061201c60208501611f6a565b9150604084013590509250925092565b60008060008060808587031215612041578081fd5b61204a85611f6a565b935061205860208601611f6a565b925060408501359150606085013567ffffffffffffffff81111561207a578182fd5b8501601f8101871361208a578182fd5b61209987823560208401611ef4565b91505092959194509250565b600080604083850312156120b7578182fd5b6120c083611f6a565b9150602083013580151581146120d4578182fd5b809150509250929050565b600080604083850312156120f1578182fd5b6120fa83611f6a565b946020939093013593505050565b600060208284031215612119578081fd5b8135610d9881612534565b600060208284031215612135578081fd5b8151610d9881612534565b600060208284031215612151578081fd5b813567ffffffffffffffff811115612167578182fd5b6112b584828501611f86565b60008060408385031215612185578182fd5b823567ffffffffffffffff81111561219b578283fd5b6121a785828601611f86565b95602094909401359450505050565b6000602082840312156121c7578081fd5b5035919050565b600080604083850312156121e0578182fd5b50508035926020909101359150565b6000815180845261220781602086016020860161245c565b601f01601f19169290920160200192915050565b6000825161222d81846020870161245c565b9190910192915050565b6000835161224981846020880161245c565b83519083019061225d81836020880161245c565b01949350505050565b6001600160a01b0385811682528416602082015260408101839052608060608201819052600090612299908301846121ef565b9695505050505050565b602080825282518282018190526000919060409081850190868401855b8281101561231257815180518552868101516001600160a01b03908116888701528682015116868601526060808201519086015260809081015115159085015260a090930192908501906001016122c0565b5091979650505050505050565b602081526000610d9860208301846121ef565b60208082526032908201527f4552433732313a207472616e7366657220746f206e6f6e20455243373231526560408201527131b2b4bb32b91034b6b83632b6b2b73a32b960711b606082015260800190565b60208082526024908201527f5072696365206d75737420626520657175616c20746f206c697374696e6720706040820152637269636560e01b606082015260800190565b60208082526031908201527f4552433732313a207472616e736665722063616c6c6572206973206e6f74206f6040820152701ddb995c881b9bdc88185c1c1c9bdd9959607a1b606082015260800190565b6000821982111561242c5761242c6124f2565b500190565b60008261244057612440612508565b500490565b600082821015612457576124576124f2565b500390565b60005b8381101561247757818101518382015260200161245f565b83811115610fdb5750506000910152565b600181811c9082168061249c57607f821691505b602082108114156124bd57634e487b7160e01b600052602260045260246000fd5b50919050565b60006000198214156124d7576124d76124f2565b5060010190565b6000826124ed576124ed612508565b500690565b634e487b7160e01b600052601160045260246000fd5b634e487b7160e01b600052601260045260246000fd5b634e487b7160e01b600052604160045260246000fd5b6001600160e01b03198116811461254a57600080fd5b5056fea26469706673582212203db562f9d224dd03df893ce753417036ae0352b270debe661eb62a9f889b102a64736f6c63430008040033",
  "linkReferences": {},
  "deployedLinkReferences": {}
}